:100000000C944B000C9468000C9468000C946800ED
:100010000C9468000C9468000C9468000C946800C0
:100020000C9468000C9468000C9468000C946800B0
:100030000C9468000C9468000C946C030C942503D9
:100040000C9468000C9405070C9468000C946800EC
:100050000C9468000C9468000C9468000C94680080
:100060000C94C0070C946800084AD73B3BCE016E45
:1000700084BCBFFDC12F3D6C74319ABD56833DDAFF
:100080003D00C77F11BED9E4BB4C3E916BAAAABE0E
:10009000000000803F0011241FBECFEFD8E0DEBF7C
:1000A000CDBF11E0A0E0B1E0ECE0FBE102C00590C3
:1000B0000D92A031B107D9F721E0A0E1B1E001C074
:1000C0001D92A632B207E1F70E94AD000C94840D98
:1000D0000C9400001F93CF93DF9300D0CDB7DEB711
:1000E000DA012C911196EC9119821A828E2F90E0F0
:1000F000820F911D18161906CCF4223011F412E06B
:1001000001C011E08FEF8A838983EE2381F0E150F3
:10011000F0E0222311F080E801C080E021E030E02F
:100120002C0F3D1FE20FF31F808301C010E0698197
:1001300080E00E94B3036A8181E00E94B303612FD3
:1001400080E00E94BD03612F81E00E94BD030F90FB
:100150000F90DF91CF911F910895FF920F931F93FE
:10016000CF93DF93CDB7DEB7E6970FB6F894DEBF37
:100170000FBECDBFCE010196909321018093200147
:100180000E94CB0A4AE650E062E080912001909103
:1001900021010E94DF0A4EE951E063E080912001D5
:1001A000909121010E94DF0A0E942107CE0104964E
:1001B00090931F0180931E010E94CC04789480913B
:1001C0001E0190911F010E94F604882311F0F12C6A
:1001D00002C0FF24F39400910601109107012091C1
:1001E00008013091090140910A0150910B01609181
:1001F0000C0170910D0180911E0190911F010E94D0
:10020000AF0580911E0190911F010E94E5051DC060
:1002100080911E0190911F010E94FB068032A9F47B
:1002200040E2BE01695E7F4F80911E0190911F01E7
:100230000E94AA0640E250E0BE01695E7F4F8091B5
:100240002001909121010E940B0BFF2009F3809166
:100250002001909121010E94D00A80E090E0E69672
:100260000FB6F894DEBF0FBECDBFDF91CF911F91C7
:100270000F91FF9008954F925F926F927F92AF928D
:10028000BF92CF92DF92EF92FF920F931F93CF9383
:10029000DF93CDB7DEB728970FB6F894DEBF0FBE59
:1002A000CDBF29013A01ED82FE820F8318870E949B
:1002B0009F09A30192010E944C0869837A838B8372
:1002C0009C83A6019501698D7A8D8B8D9C8D0E94F2
:1002D0004C089B01AC0169817A818B819C810E94D1
:1002E0005A0A69837A838B839C83A3019201C80194
:1002F000B7010E944C089B01AC0169817A818B8116
:100300009C810E942B099B01AC01C601B5010E9492
:100310004D0828960FB6F894DEBF0FBECDBFDF9113
:10032000CF911F910F91FF90EF90DF90CF90BF90F2
:10033000AF907F906F905F904F9008952F923F9273
:100340004F925F926F927F928F929F92AF92BF92E5
:10035000CF92DF92EF92FF920F931F93CF93DF9391
:10036000CDB7DEB7A4970FB6F894DEBF0FBECDBFF2
:1003700022E030E0AE014F5E5F4F61E488E60E940C
:10038000D107698920E8629FB00111248A89682B0E
:10039000072E000C880B990B0E949F0920E030E08B
:1003A0004AEA53E40E942B0928EB3EE142E152E481
:1003B0000E944D086D8F7E8F8F8F98A326E030E0CE
:1003C000AE014D5E5F4F6BE388E60E94D1076B89FB
:1003D00070E0762F66278C89682B8D88912C982C5D
:1003E00088248E89882A2F88312C322C2224888DCB
:1003F000282A072E000C880B990B32E43F9344EB1C
:100400004F931F921F920F2EA12CB12CF4EBCF2EE5
:10041000F2ECDF2EF02DE12CF12C09EC13E420E0BE
:1004200030E844E853E40E943B010F900F900F9096
:100430000F90698F7A8F8B8F9C8FB401990C880BEA
:10044000990B52E45F9324EB2F931F921F9220E0AD
:1004500030E844E853E40E943B010F900F900F9066
:100460000F902B013C01B101330C880B990B32E446
:100470003F9344EB4F931F921F9220E030E844E8F3
:1004800053E40E943B010F900F900F900F906B016F
:100490007C01F7FAF094F7F8F09477FA709477F813
:1004A0007094A7019601C301B2010E94CC082BED04
:1004B0003FE049E450E40E944D0820E030E044E38E
:1004C00053E40E945A0A2BED3FE049E450E40E94B5
:1004D0002B0969A37AA38BA39CA3898C9A8CAB8CE0
:1004E000BC8CB7FAB094B7F8B094A7019601C501D7
:1004F000B4010E94CC082BED3FE049E450E40E9497
:100500004D0820E030E044E353E40E945A0A2BED0A
:100510003FE049E450E40E942B096B017C01A501F6
:100520009401C301B2010E94CC082BED3FE049E4E5
:1005300050E40E944D0820E030E044E353E40E9480
:100540005A0A2BED3FE049E450E40E942B092D8D1F
:100550003E8D4F8D58A129833A834B835C8329A11B
:100560003AA14BA15CA12D833E834F835887C98656
:10057000DA86EB86FC866D877E878F87988B20E1F5
:1005800030E0AE014F5F5F4F61E083E00E94350BCA
:100590007C0180911E0190911F010E941406009120
:1005A0000601109107012091080130910901409145
:1005B0000A0150910B0160910C0170910D01809125
:1005C0001E0190911F010E947A0540E2B7018091BF
:1005D0001E0190911F010E943B06C7010E94F50B6E
:1005E0000091060110910701209108013091090145
:1005F00040910A0150910B0160910C0170910D0125
:1006000080911E0190911F010E94AF0580911E01F3
:1006100090911F010E94E505A4960FB6F894DEBFE5
:100620000FBECDBFDF91CF911F910F91FF90EF9043
:10063000DF90CF90BF90AF909F908F907F906F9002
:100640005F904F903F902F9008951F920F920FB69A
:100650000F9211242F933F938F939F932091120118
:10066000309113012F5F3F4F3093130120931201FC
:100670005D9B05C080911A0190911B0105C080917E
:100680001A0190911B01819590E028173907D9F440
:1006900020911A0130911B01809116019091170150
:1006A0002817390741F08091160190911701909316
:1006B0001B0180931A019BB180E289278BB91092AC
:1006C0001301109212019F918F913F912F910F90E2
:1006D0000FBE0F901F9018951F920F920FB60F929A
:1006E00011242F933F938F939F932091100130916A
:1006F00011012F5F3F4F30931101209310015E9B3A
:1007000005C0809118019091190105C080911801D0
:1007100090911901819590E028173907D9F420911B
:100720001801309119018091140190911501281739
:10073000390741F0809114019091150190931901AE
:10074000809318019BB180E489278BB91092110125
:10075000109210019F918F913F912F910F900FBE9A
:100760000F901F901895E82FF0E070E0EE0FFF1F3C
:10077000EC5EFE4F718360830895880F91E0980FBF
:100780006130D9F018F0623069F108954BB121E081
:1007900030E0B90102C0660F771F8A95E2F7862F15
:1007A000809584238BB98BB102C0220F331F9A9599
:1007B000E2F7209528232BB908956BB121E030E0B2
:1007C000A90102C0440F551F8A95E2F7462B4BB989
:1007D0008BB102C0220F331F9A95E2F72095282390
:1007E0002BB908954BB121E030E0B90102C0660F8A
:1007F000771F8A95E2F7862F809584238BB98BB17A
:1008000002C0220F331F9A95E2F7282B2BB90895C7
:1008100061110EC045B121E030E0B90102C0660FA0
:10082000771F8A95E2F7CB018095842385B90895D7
:1008300045B121E030E0B90102C0660F771F8A950B
:10084000E2F7CB01842B85B90895CF93DF93EC01B8
:1008500060E089810E94080480E50E94270783E701
:100860000E94270761E089810E940804DF91CF91EF
:1008700008951F93CF93DF93EC01162F60E08981D9
:100880000E940804812F80620E942707182F61E0D0
:1008900089810E940804812FDF91CF911F910895D3
:1008A00061EE0E943904089562EE0E9439040895B1
:1008B0006FEF0E94390408950F931F93CF93DF9336
:1008C000EC01162F042F60E089810E940804812F1B
:1008D00080620E942707182F802F0E94270761E05F
:1008E00089810E940804812FDF91CF911F910F9180
:1008F00008951F93CF93DF93EC01162F60E0898159
:100900000E940804812F0E9427078FEF0E9427076B
:10091000182F61E089810E940804812FDF91CF9117
:100920001F910895EF92FF920F931F93CF93DF9340
:100930007C01C62F8A01D22F60E0FC0181810E94D8
:1009400008048C2F80620E942707C0E007C0F801CE
:10095000EC0FF11D80810E942707CF5FCD17B8F300
:1009600061E0F70181810E940804DF91CF911F911E
:100970000F91FF90EF900895FC01428941FD0BC05B
:100980004260428B60E00E945C048FE19EE401972C
:10099000F1F700C000000895FC0191E0908382E02F
:1009A000818384B1866084B940E856E968E970E0E3
:1009B000428353836483758380E286831782108623
:1009C00085E0818792878387148684B18E7F84B97E
:1009D00085B1816085B9EBE6F0E08081816080833C
:1009E000E8E6F0E080818160808308951F93CF93D3
:1009F000DF93EC0160E088810E94080461E0898156
:100A00000E9408048FE19EE40197F1F700C0000006
:100A10004FE564E0CE010E945C0466E0CE010E94D6
:100A20007904482F477D66E0CE010E945C046DE1A9
:100A3000CE010E947904182FCE010E9425046DE199
:100A4000CE010E94790491E0181390E09F838823DF
:100A500051F0992319F0CE010E94250440E06DE188
:100A6000CE010E945C04198A40E06CE1CE010E9434
:100A70005C041A864FE361E0CE010E945C0443E00F
:100A800062E0CE010E945C0410E007C061E1610FEA
:100A90004E81CE010E945C041F5F1630B8F343E024
:100AA00063E0CE010E945C0445E665E0CE010E9451
:100AB0005C0440E767E0CE010E945C04CE010E9426
:100AC0005004CE010E9454044CE060E0CE010E942C
:100AD0005C0460E0CE010E9479048A8BCE010E9402
:100AE000BC049A8981E09E3009F080E0DF91CF91CB
:100AF0001F910895EF92FF920F931F93CF93DF936F
:100B0000CDB7DEB728970FB6F894DEBF0FBECDBFC6
:100B10007C0109831A832B833C834D835E836F831F
:100B20007887FC012185AE014F5F5F4F6AE00E942C
:100B30009204F7012185AE014F5F5F4F60E1C7016D
:100B40000E94920428960FB6F894DEBF0FBECDBF68
:100B5000DF91CF911F910F91FF90EF900895EF9249
:100B6000FF920F931F93CF93DF93CDB7DEB72897F4
:100B70000FB6F894DEBF0FBECDBF7C0109831A8388
:100B80002B833C834D835E836F837887FC012185B3
:100B9000AE014F5F5F4F6BE00E94920462E0C701BD
:100BA0000E947904482F426062E0C7010E945C0401
:100BB00028960FB6F894DEBF0FBECDBFDF91CF9160
:100BC0001F910F91FF90EF900895CF93DF93EC0169
:100BD0000E94BC044A8941604A8B60E0CE010E94B9
:100BE0005C0440E767E0CE010E945C0461E088811C
:100BF0000E9408048885882349F0AE01445F5F4F56
:100C000029856AE0CE010E9492040BC062E0CE0109
:100C10000E947904482F4E7F62E0CE010E945C045E
:100C20001886DF91CF910895CF93DF93EC0160E0B8
:100C300088810E94080483E591E00197F1F700C0E4
:100C400000008989882319F0CE010E9450044A8946
:100C50004E7F4A8B60E0CE010E945C0462E0CE01D0
:100C60000E947904482F416062E0CE010E945C043A
:100C7000DF91CF910895AF92BF92DF92EF92FF92F2
:100C80000F931F93CF93DF937C018B01D1E0411130
:100C9000D0E0F7018285811107C0D681C42FD41717
:100CA00008F4CD2FDC1B04C0C42F413208F0C0E291
:100CB00060E0F70181810E94080480EA0E94270712
:100CC0000AC05801FFEFAF1ABF0AF80180810E94E5
:100CD0002707CD2D8501DD24DA94DC0EC111F1CF7B
:100CE00004C080E00E942707DC2FCFEFCD0FD11189
:100CF000F8CF61E0F70181810E94080461E0F7010B
:100D000080810E94080488B1826088B9C7010E946E
:100D100058048073D9F388B18D7F88B960E0F701FA
:100D200080810E94080440E767E0C7010E945C04DC
:100D300084FF05C0C7010E94500480E001C081E02B
:100D4000DF91CF911F910F91FF90EF90DF90BF90B7
:100D5000AF900895AF92BF92CF92DF92FF920F9320
:100D60001F93CF93DF936C018B01FC01828581116E
:100D700007C0C681DC2F4C1708F4D42FCD1B05C04B
:100D8000D42F413208F0D0E2C0E060E0F60181816A
:100D90000E94080481E60E9427070BC05801FFEF5C
:100DA000AF1ABF0A8FEF0E942707F8018083DF2D5B
:100DB0008501FF24FA94FD0ED111F0CF04C08FEF0E
:100DC0000E942707CD2FDFEFDC0FC111F8CF61E0C4
:100DD000F60181810E94080440E467E0C6010E9498
:100DE0005C04DF91CF911F910F91FF90DF90CF9026
:100DF000BF90AF9008950E9458048695982F9770E1
:100E000081E0963008F080E008951F920F920FB6AF
:100E10000F9211248F930DB407FE07C08EB58093F7
:100E20001D0181E080931C0106C08EB580931D01D9
:100E30008FEF80931C018F910F900FBE0F901F902A
:100E4000189584B1886284B981ED8CBD08951092A3
:100E50001C018EBD80911C018823E1F380911D014E
:100E6000089580E090E005C00196803426E0920766
:100E700030F420910E012830B9F780E0089581E028
:100E8000089585EA8093BC0088E00E9431070895A8
:100E900085E98093BC00089585EA8093BC0080E0DA
:100EA00090E005C00196803426E0920730F420914E
:100EB0000E012031B9F780E0089581E0089585E8BA
:100EC0008093BC0080E090E005C00196803426E06D
:100ED000920730F420910E012831B9F780E008958F
:100EE00081E0089585E88093BC0080E090E005C033
:100EF0000196803426E0920730F420910E012832CA
:100F0000B9F780E0089581E0089585E88093BC00FA
:100F100080E090E005C00196803426E0920730F42E
:100F200020910E012034B9F780E0089581E0089502
:100F3000882389F085EC8093BC0080E090E005C0B8
:100F40000196803426E09207B8F420910E012035F6
:100F5000B9F780E0089585E88093BC0080E090E0D8
:100F600005C00196803426E0920740F420910E01DE
:100F70002835B9F780E0089581E0089581E008956B
:100F80001F920F920FB60F9211248F938091B90088
:100F9000887F80930E018F910F900FBE0F901F904E
:100FA0001895CF92DF92EF92FF920F931F93CF93FA
:100FB000D82EC62E7A0189010E944107C82F8823A6
:100FC00021F00E9448078C2F5FC08D2D880F8093E1
:100FD000BB000E945F07C82F882321F00E944807AA
:100FE0008C2F52C0C092BB000E947207C82F88236A
:100FF00021F00E9448078C2F47C00E944C07C82F41
:10100000882321F00E9448078C2F3EC08D2D90E050
:10101000880F991F81608093BB000E948507C82FAD
:101020008823C1F00E9448078C2F2EC081E00E94C7
:101030009807C82F882321F00E9448078C2F24C0CE
:10104000F701EC0DFD1D8091BB0080838FEFC81A66
:10105000D80A02C0C12CD12CC8010197C816D906E4
:1010600028F380E00E949807C82F882321F00E946F
:1010700048078C2F09C0F701EC0DFD1D8091BB00C6
:1010800080830E9448078C2FCF911F910F91FF9072
:10109000EF90DF90CF9008955058BB27AA270E9469
:1010A00064080C94180A0E940A0A38F00E94110A77
:1010B00020F039F49F3F19F426F40C94E0090EF463
:1010C000E095E7FB0C94DA09E92F0E94290A58F30E
:1010D000BA17620773078407950720F079F4A6F51D
:1010E0000C944B0A0EF4E0950B2EBA2FA02D0B0199
:1010F000B90190010C01CA01A0011124FF27591B5D
:1011000099F0593F50F4503E68F11A16F040A22F62
:10111000232F342F4427585FF3CF469537952795D3
:10112000A795F0405395C9F77EF41F16BA0B620BD2
:10113000730B840BBAF09150A1F0FF0FBB1F661F19
:10114000771F881FC2F70EC0BA0F621F731F841F5C
:1011500048F4879577956795B795F7959E3F08F082
:10116000B0CF9395880F08F09927EE0F9795879544
:1011700008950E940A0A60F080E891E009F49EEF69
:101180000E94110A28F040E851E071F45EEF0CC0B3
:101190000C94E0090C944B0AE92FE0780E94290A8C
:1011A00040F3092E052AB1F32617370748075907D8
:1011B00038F00E2E07F8E02569F0E025E0640AC05B
:1011C000EF6307F8009407FADB01B9019D01DC0128
:1011D000CA01AD01EF930E9442090E94180A0E94C1
:1011E000FC085F91552339F02BED3FE049E450FDB9
:1011F00049EC0C944D080895DF93DD27B92FBF7794
:1012000040E85FE31616170648075B0718F4D92F66
:101210000E94520A9F938F937F936F930E94C70AF5
:10122000E8E6F0E00E94E3090E94180A2F913F913E
:101230004F915F910E946D0ADD2351F09058A2EA10
:101240002AED3FE049EC5FE3D0785D270E94640817
:10125000DF910C94180A0E943F090C94180A0E940E
:10126000110A58F00E940A0A40F029F45F3F29F061
:101270000C94DA0951110C944C0A0C94E0090E9468
:10128000290A68F39923B1F3552391F3951B550B64
:10129000BB27AA2762177307840738F09F5F5F4F49
:1012A000220F331F441FAA1FA9F335D00E2E3AF088
:1012B000E0E832D091505040E695001CCAF72BD0A0
:1012C000FE2F29D0660F771F881FBB1F26173707F1
:1012D0004807AB07B0E809F0BB0B802DBF01FF2723
:1012E00093585F4F3AF09E3F510578F00C94DA091D
:1012F0000C944C0A5F3FE4F3983ED4F386957795BF
:101300006795B795F7959F5FC9F7880F911D9695DB
:10131000879597F90895E1E0660F771F881FBB1F37
:10132000621773078407BA0720F0621B730B840BE4
:10133000BA0BEE1F88F7E0950895E89409C097FB73
:101340003EF490958095709561957F4F8F4F9F4F9C
:101350009923A9F0F92F96E9BB279395F6958795E0
:1013600077956795B795F111F8CFFAF4BB0F11F4A3
:1013700060FF1BC06F5F7F4F8F4F9F4F16C088234A
:1013800011F096E911C0772321F09EE8872F762F80
:1013900005C0662371F096E8862F70E060E02AF0C1
:1013A0009A95660F771F881FDAF7880F96958795AD
:1013B00097F9089597F99F6780E870E060E00895D5
:1013C0009FEF80EC0895DF93CF931F930F93FF92CD
:1013D000EF92DF927B018C01689406C0DA2EEF0158
:1013E0000E946D0AFE01E894A591259135914591E1
:1013F0005591A6F3EF010E946408FE019701A80130
:10140000DA9469F7DF90EF90FF900F911F91CF91E1
:10141000DF91089500240A94161617061806090687
:10142000089500240A94121613061406050608955A
:10143000092E0394000C11F4882352F0BB0F40F4E2
:10144000BF2B11F460FF04C06F5F7F4F8F4F9F4F22
:10145000089557FD9058440F551F59F05F3F71F0A4
:101460004795880F97FB991F61F09F3F79F087950B
:101470000895121613061406551FF2CF4695F1DF94
:1014800008C0161617061806991FF1CF8695710524
:10149000610508940895E894BB2766277727CB0158
:1014A00097F908959B01AC0160E070E080E89FE34C
:1014B0000C942B090E946D0A0C94180A0E940A0AC7
:1014C00038F00E94110A20F0952311F00C94DA09EB
:1014D0000C94E00911240C944C0A0E94290A70F320
:1014E000959FC1F3950F50E0551F629FF001729FC9
:1014F000BB27F00DB11D639FAA27F00DB11DAA1FD8
:10150000649F6627B00DA11D661F829F2227B00D24
:10151000A11D621F739FB00DA11D621F839FA00DAF
:10152000611D221F749F3327A00D611D231F849FFF
:10153000600D211D822F762F6A2F11249F57504056
:101540009AF0F1F088234AF0EE0FFF1FBB1F661FD1
:10155000771F881F91505040A9F79E3F510580F09A
:101560000C94DA090C944C0A5F3FE4F3983ED4F3F0
:10157000869577956795B795F795E7959F5FC1F73E
:10158000FE2B880F911D9695879597F908959B01DD
:10159000AC010C945A0AFC01118210821282089547
:1015A000CF93DF93EC0188819981009721F00E940D
:1015B000F50B198218821A82DF91CF910895EF926C
:1015C000FF921F93CF93DF93EC01162F7A016A816C
:1015D0006F5F6A8370E0CB01880F991F680F791FD6
:1015E000888199810E947E0C998388832A8130E0CA
:1015F000F901EE0FFF1F2E0F3F1F23503109FC0191
:10160000E20FF31F1083F282E182DF91CF911F91ED
:10161000FF90EF900895CF93DF93DC01EB0120E082
:1016200030E019C08D919C911197F901EE0FFF1FC9
:10163000E20FF31FE80FF91F90818881981309C00A
:101640000180F281E02DAE014E5F5F4F6981099507
:1016500009C02F5F3F4F12964C91129750E024170C
:10166000350704F3DF91CF9108950F931F93CF9324
:10167000DF93082F162FEA0180E290E00E945D0BB5
:10168000DC010C9311961C93119720E030E008C008
:10169000F9013296EA0FFB1F988190832F5F3F4F2D
:1016A0002D313105ACF38AE05F968C935F97CD01C5
:1016B000DF91CF911F910F9108950F931F93CF93B7
:1016C000DF938230910510F482E090E0E0912401F4
:1016D000F091250120E030E0A0E0B0E0309719F172
:1016E000408151810281138148175907C8F084173E
:1016F000950769F4109731F012960C931297139690
:101700001C9327C0009324011093250122C02115AA
:10171000310519F04217530718F49A01BD01EF0182
:10172000DF01F801DBCF21153105F9F0281B390B5A
:101730002430310580F48A819B816115710521F087
:10174000FB019383828304C090932501809324013D
:10175000FE01329644C0FE01E20FF31F8193919384
:1017600022503109398328833AC0209122013091D7
:101770002301232B41F42091020130910301309386
:1017800023012093220120910001309101012115B4
:10179000310541F42DB73EB7409104015091050148
:1017A000241B350BE0912201F0912301E217F3078E
:1017B000A0F42E1B3F0B2817390778F0AC014E5FC1
:1017C0005F4F2417350748F04E0F5F1F50932301DA
:1017D000409322018193919302C0E0E0F0E0CF01B9
:1017E000DF91CF911F910F910895CF93DF930097D1
:1017F00009F481C0FC01329713821282A091240166
:10180000B0912501109781F420813181820F931FBF
:1018100020912201309123012817390751F5F093C7
:101820002301E093220167C0ED0120E030E0CE17F4
:10183000DF0740F44A815B819E0141155105F1F0BB
:10184000EA01F5CFD383C28340815181840F951F74
:10185000C817D90759F488819981840F951F02967A
:10186000918380838A819B819383828321153105B3
:1018700029F4F0932501E09324013DC0E901FB83A5
:10188000EA8349915991C40FD51FEC17FD0761F404
:1018900080819181840F951F0296E9019983888345
:1018A000828193819B838A83E0E0F0E012968D91A0
:1018B0009C911397009719F0FD01DC01F7CF8D91F2
:1018C0009C9111979D012E5F3F4F820F931F209196
:1018D0002201309123012817390769F4309729F440
:1018E000109225011092240102C013821282B0933B
:1018F0002301A0932201DF91CF910895A0E0B0E0F1
:10190000E4E8FCE00C94510DEC01009721F4CB01CC
:101910000E945D0BB4C0FC01E60FF71F9C01225032
:101920003109E217F30708F4A8C0D9010D911C9101
:10193000119706171707B0F00530110508F49BC082
:10194000C80104978617970708F495C0025011093B
:10195000061B170B019311936D937C93CF010E948B
:10196000F50B89C05B01A01AB10A4C01800E911ED3
:10197000A0912401B0912501612C712CE12CF12C56
:10198000109709F446C08D919C911197A815B9053F
:10199000B1F56C0142E0C40ED11CCA14DB0478F12D
:1019A0004C018A189B08640142E0C40ED11C1296B7
:1019B000BC9012971396AC91B5E0CB16D10440F0D1
:1019C000B282A38391828082D9016D937C9309C0F6
:1019D0000E5F1F4F800F911FF90191838083EB2DC4
:1019E000FA2FE114F10431F0D7011396FC93EE9332
:1019F000129741C0F0932501E09324013CC0681682
:101A0000790608F43C017D0112960D90BC91A02D41
:101A1000B7CF809122019091230188169906E1F4B5
:101A200066167706C8F48091000190910101009735
:101A300041F48DB79EB74091040150910501841B7C
:101A4000950BE817F907C8F4F0932301E0932201FE
:101A5000F901718360830FC0CB010E945D0B7C0193
:101A6000009759F0A801BE010E94440DCE010E94CA
:101A7000F50BC70104C0CE0102C080E090E0CDB7F5
:101A8000DEB7EEE00C946D0DFB01DC0102C00190AD
:101A90000D9241505040D8F708952F923F924F92A7
:101AA0005F926F927F928F929F92AF92BF92CF92EE
:101AB000DF92EF92FF920F931F93CF93DF93CDB7F7
:101AC000DEB7CA1BDB0B0FB6F894DEBF0FBECDBF6F
:101AD00009942A88398848885F846E847D848C8440
:101AE0009B84AA84B984C884DF80EE80FD800C8149
:101AF0001B81AA81B981CE0FD11D0FB6F894DEBF2C
:0C1B00000FBECDBFED010895F894FFCF9B
:101B0C00000026012000E1F0F0E8E8000000F800F9
:00000001FF
