:100000000C9434000C9451000C9451000C94510049
:100010000C9451000C9451000C9451000C9451001C
:100020000C9451000C9451000C9451000C9451000C
:100030000C9451000C9451000C9426020C94DF0196
:100040000C9451000C9476030C946D020C945100A6
:100050000C9405030C9451000C9451000C94510025
:100060000C9451000C94510011241FBECFEFD8E026
:10007000DEBFCDBF11E0A0E0B1E0E8EAF2E102C0EE
:1000800005900D92A830B107D9F721E0A8E0B1E0C2
:1000900001C01D92A63AB207E1F70E9465010C94D7
:1000A00052090C94000087B1806187B988B18F7EB6
:1000B00088B90895AC0120E030E01FC098B190618C
:1000C00098B96FEF83EC99E0615080409040E1F780
:1000D00000C0000098B19F7E98B9CA010197281707
:1000E00039074CF46FEF81EE94E06150804090400E
:1000F000E1F700C000002F5F3F4F24173507F4F2EF
:100100000895AB01BC018091A0019091A1010E94D2
:10011000DF060895CF93DF93EA0181E090E00E942B
:100120005A0040E2BE0180919E0190919F010E9481
:10013000D505811108C082E0898360E270E0CE01BC
:100140000E945A030BC081E0898360E270E0CE0117
:100150000E945A0381E090E00E945A00DF91CF9103
:100160000895CF93DF93EA0140E2BE0180919E01A2
:1001700090919F010E94D505811108C082E089837A
:1001800060E270E0CE010E945A0307C081E08983DB
:1001900060E270E0CE010E945A03DF91CF91089592
:1001A000EF92FF920F931F93CF93DF93CDB7DEB7FC
:1001B000A0970FB6F894DEBF0FBECDBF7A0140E224
:1001C000B70180919E0190919F010E94D5058111F8
:1001D00009C082E0F701818360E270E0C7010E94FC
:1001E0005A0366C001EE10EF20EF38EE48EE50E003
:1001F00060E070E080919E0190919F010E9449050E
:1002000080919E0190919F010E947F0500E010E087
:1002100023C00F5F1F4F0034F6E01F07E8F082E0B5
:10022000F701818380919E0190919F010E94AE050C
:1002300001EE10EF20EF38EE48EE50E060E070E0A5
:1002400080919E0190919F010E94140560E270E0F0
:10025000C7010E945A032CC080919E0190919F017A
:100260000E9495068823A9F240E2BE016F5F7F4F8E
:1002700080919E0190919F010E94440680919E0171
:1002800090919F010E94AE0501EE10EF20EF38EE35
:1002900048EE50E060E070E080919E0190919F01F7
:1002A0000E94140560E270E0CE0101960E945A039C
:1002B000A0960FB6F894DEBF0FBECDBFDF91CF91F1
:1002C0001F910F91FF90EF900895FF920F931F934E
:1002D000CF93DF93CDB7DEB766970FB6F894DEBF46
:1002E0000FBECDBFCE0101969093A1018093A001D6
:1002F0000E949F064AE850E061E08091A001909141
:10030000A1010E94B30641EB50E062E08091A001A0
:100310009091A1010E94B30640ED50E063E080910E
:10032000A0019091A1010E94B30640E060E875E24F
:1003300080E090E00E94140360E270E081E890E0C9
:100340000E9448030E949203CE01049690939F015D
:1003500080939E010E946604789480919E01909102
:100360009F010E949004882311F0F12C02C0FF2409
:10037000F39401EE10EF20EF38EE48EE50E060E02D
:1003800070E080919E0190919F010E9414050E944F
:100390005300FF20F1F38091A0019091A1010E94F0
:1003A000A40680E090E066960FB6F894DEBF0FBE1C
:1003B000CDBFDF91CF911F910F91FF9008951F92B4
:1003C0000F920FB60F9211242F933F938F939F9309
:1003D00020910A0130910B012F5F3F4F30930B01A9
:1003E00020930A015D9B05C0809112019091130139
:1003F00005C08091120190911301819590E028171A
:100400003907D9F4209112013091130180910E0126
:1004100090910F012817390741F080910E019091BA
:100420000F0190931301809312019BB180E2892701
:100430008BB910920B0110920A019F918F913F91FD
:100440002F910F900FBE0F901F9018951F920F9233
:100450000FB60F9211242F933F938F939F93209168
:100460000801309109012F5F3F4F3093090120931C
:1004700008015E9B05C0809110019091110105C09B
:100480008091100190911101819590E02817390712
:10049000D9F4209110013091110180910C019091BB
:1004A0000D012817390741F080910C0190910D0141
:1004B00090931101809310019BB180E489278BB93F
:1004C00010920901109208019F918F913F912F91F5
:1004D0000F900FBE0F901F9018951F920F920FB69E
:1004E0000F921124AF92BF92CF92DF92EF92FF92C0
:1004F0000F931F932F933F934F935F936F937F932C
:100500008F939F93AF93BF93EF93FF93CF93DF931B
:10051000CDB7DEB70DB71EB7E0911401F09115010C
:100520008091C600E45EFE4F808380911A01909115
:100530001B01019690931B0180931A018091140175
:100540009091150101969093150180931401E0900C
:100550001801F0901901E114F10461F180911A0180
:1005600090911B01E816F90629F58DB79EB78E19F3
:100570009F090FB6F8949EBF0FBE8DBF01966C0108
:10058000A7016CE171E00E941209E0911601F0915F
:100590001701B701C60109951092150110921401B7
:1005A00010921B0110921A010FB6F8941EBF0FBED5
:1005B0000DBF0BC0809114019091150180389105F9
:1005C00020F010921501109214010FB6F8941EBF7E
:1005D0000FBE0DBFDF91CF91FF91EF91BF91AF9112
:1005E0009F918F917F916F915F914F913F912F914B
:1005F0001F910F91FF90EF90DF90CF90BF90AF9041
:100600000F900FBE0F901F9018951F920F920FB66C
:100610000F9211248F9381E0809306018F910F90A8
:100620000FBE0F901F901895DC01CB01880F991F0A
:10063000AA1FBB1F880F991FAA1FBB1F9C01AD01DA
:10064000220F331F441F551F220F331F441F551FF6
:1006500060E074E284EF90E00E940907BA01A9010A
:100660004150510961097109DB01CA0188279F7056
:10067000AA27BB27892F9A2FAB2FBB278093C500B2
:100680004093C400E1ECF0E08081886D80830895A0
:1006900090931701809316017093190160931801CC
:1006A0000895909106019923E1F310920601809339
:1006B000C6000895EF92FF920F931F93CF93DF939D
:1006C0007C018B01C0E0D0E007C0F701EC0FFD1FFB
:1006D00080810E9451032196C017D107B0F3DF91AA
:1006E000CF911F910F91FF90EF9008951F920F925D
:1006F0000FB60F9211248F930DB407FE07C08EB56D
:1007000080939D0181E080939C0106C08EB580930B
:100710009D018FEF80939C018F910F900FBE0F90E2
:100720001F90189584B1886284B981ED8CBD0895BD
:1007300010929C018EBD80919C018823E1F38091F1
:100740009D01089561110EC045B121E030E0B9016D
:1007500002C0660F771F8A95E2F7CB01809584234C
:1007600085B9089545B121E030E0B90102C0660FB6
:10077000771F8A95E2F7CB01842B85B90895CF9333
:10078000DF93EC0160E089810E94A20380E50E9472
:10079000980383E70E94980361E089810E94A20385
:1007A000DF91CF9108951F93CF93DF93EC01162F24
:1007B00060E089810E94A203812F80620E949803D9
:1007C000182F61E089810E94A203812FDF91CF91D0
:1007D0001F91089561EE0E94D303089562EE0E9476
:1007E000D30308956FEF0E94D30308950F931F93CF
:1007F000CF93DF93EC01162F042F60E089810E94D4
:10080000A203812F80620E949803182F802F0E94DC
:10081000980361E089810E94A203812FDF91CF912B
:100820001F910F9108951F93CF93DF93EC01162F23
:1008300060E089810E94A203812F0E9498038FEFBC
:100840000E949803182F61E089810E94A203812FE2
:10085000DF91CF911F910895EF92FF920F931F9315
:10086000CF93DF937C01C62F8A01D22F60E0FC0179
:1008700081810E94A2038C2F80620E949803C0E0B5
:1008800007C0F801EC0FF11D80810E949803CF5F33
:10089000CD17B8F361E0F70181810E94A203DF91D7
:1008A000CF911F910F91FF90EF900895FC01428925
:1008B00041FD0BC04260428B60E00E94F6038FE175
:1008C0009EE40197F1F700C000000895FC0191E05B
:1008D000908382E0818384B1866084B940E856E9E0
:1008E00068E970E0428353836483758380E2868382
:1008F0001782108685E0818792878387148684B16A
:100900008E7F84B985B1816085B9EBE6F0E08081A6
:1009100081608083E8E6F0E08081816080830895D3
:100920001F93CF93DF93EC0160E088810E94A203C4
:1009300061E089810E94A2038FE19EE40197F1F7B3
:1009400000C000004FE564E0CE010E94F60366E0BF
:10095000CE010E941304482F477D66E0CE010E941D
:10096000F6036DE1CE010E941304182FCE010E9400
:10097000BF036DE1CE010E94130491E0181390E0D3
:100980009F83882351F0992319F0CE010E94BF0361
:1009900040E06DE1CE010E94F603198A40E06CE16F
:1009A000CE010E94F6031A864FE361E0CE010E9459
:1009B000F60343E062E0CE010E94F60310E007C0B8
:1009C00061E1610F4E81CE010E94F6031F5F163078
:1009D000B8F343E063E0CE010E94F60345E665E02C
:1009E000CE010E94F60340E767E0CE010E94F603C5
:1009F000CE010E94EA03CE010E94EE034CE060E0CB
:100A0000CE010E94F60360E0CE010E9413048A8B9F
:100A1000CE010E9456049A8981E09E3009F080E060
:100A2000DF91CF911F910895EF92FF920F931F9343
:100A3000CF93DF93CDB7DEB728970FB6F894DEBF1C
:100A40000FBECDBF7C0109831A832B833C834D836A
:100A50005E836F837887FC012185AE014F5F5F4F16
:100A60006AE00E942C04F7012185AE014F5F5F4FC1
:100A700060E1C7010E942C0428960FB6F894DEBFEF
:100A80000FBECDBFDF91CF911F910F91FF90EF90DF
:100A90000895EF92FF920F931F93CF93DF93CDB7FB
:100AA000DEB728970FB6F894DEBF0FBECDBF7C012E
:100AB00009831A832B833C834D835E836F837887FE
:100AC000FC012185AE014F5F5F4F6BE00E942C045B
:100AD00062E0C7010E941304482F426062E0C70130
:100AE0000E94F60328960FB6F894DEBF0FBECDBF66
:100AF000DF91CF911F910F91FF90EF900895CF93C9
:100B0000DF93EC010E9456044A8941604A8B60E001
:100B1000CE010E94F60340E767E0CE010E94F60393
:100B200061E088810E94A2038885882349F0AE0194
:100B3000445F5F4F29856AE0CE010E942C040BC000
:100B400062E0CE010E941304482F4E7F62E0CE0186
:100B50000E94F6031886DF91CF910895CF93DF931B
:100B6000EC0160E088810E94A20383E591E0019797
:100B7000F1F700C000008989882319F0CE010E9496
:100B8000EA034A894E7F4A8B60E0CE010E94F60359
:100B900062E0CE010E941304482F416062E0CE0162
:100BA0000E94F603DF91CF910895AF92BF92DF923A
:100BB000EF92FF920F931F93CF93DF937C018B01F2
:100BC000D1E04111D0E0F7018285811107C0D681C3
:100BD000C42FD41708F4CD2FDC1B04C0C42F41321E
:100BE00008F0C0E260E0F70181810E94A20380EA80
:100BF0000E9498030AC05801FFEFAF1ABF0AF8011C
:100C000080810E949803CD2D8501DD24DA94DC0ECD
:100C1000C111F1CF04C080E00E949803DC2FCFEF18
:100C2000CD0FD111F8CF61E0F70181810E94A203BD
:100C300061E0F70180810E94A20388B1826088B9D7
:100C4000C7010E94F2038073D9F388B18D7F88B900
:100C500060E0F70180810E94A20340E767E0C701DE
:100C60000E94F60384FF05C0C7010E94EA0380E0EA
:100C700001C081E0DF91CF911F910F91FF90EF9024
:100C8000DF90BF90AF900895AF92BF92CF92DF9266
:100C9000FF920F931F93CF93DF936C018B01FC01A5
:100CA0008285811107C0C681DC2F4C1708F4D42F30
:100CB000CD1B05C0D42F413208F0D0E2C0E060E087
:100CC000F60181810E94A20381E60E9498030BC075
:100CD0005801FFEFAF1ABF0A8FEF0E949803F80187
:100CE0008083DF2D8501FF24FA94FD0ED111F0CF12
:100CF00004C08FEF0E949803CD2FDFEFDC0FC111EE
:100D0000F8CF61E0F60181810E94A20340E467E030
:100D1000C6010E94F603DF91CF911F910F91FF90C2
:100D2000DF90CF90BF90AF9008950E94F203869518
:100D3000982F977081E0963008F080E00895FC01CC
:100D40001182108212820895CF93DF93EC01888183
:100D50009981009721F00E94C307198218821A8294
:100D6000DF91CF910895EF92FF921F93CF93DF937E
:100D7000EC01162F7A016A816F5F6A8370E0CB0104
:100D8000880F991F680F791F888199810E944C08EC
:100D9000998388832A8130E0F901EE0FFF1F2E0F1F
:100DA0003F1F23503109FC01E20FF31F1083F28231
:100DB000E182DF91CF911F91FF90EF900895CF9343
:100DC000DF93DC01EB0120E030E019C08D919C91B4
:100DD0001197F901EE0FFF1FE20FF31FE80FF91F44
:100DE00090818881981309C00180F281E02DAE01C5
:100DF0004E5F5F4F6981099509C02F5F3F4F129683
:100E00004C91129750E02417350704F3DF91CF91EE
:100E10000895A1E21A2EAA1BBB1BFD010DC0AA1F3B
:100E2000BB1FEE1FFF1FA217B307E407F50720F053
:100E3000A21BB30BE40BF50B661F771F881F991FCE
:100E40001A9469F760957095809590959B01AC0117
:100E5000BD01CF0108950F931F93CF93DF9382308D
:100E6000910510F482E090E0E091A401F091A501D9
:100E700020E030E0A0E0B0E0309719F140815181EE
:100E80000281138148175907C8F08417950769F440
:100E9000109731F012960C93129713961C9327C05B
:100EA0000093A4011093A50122C02115310519F06A
:100EB0004217530718F49A01BD01EF01DF01F80151
:100EC000DBCF21153105F9F0281B390B2430310512
:100ED00080F48A819B816115710521F0FB01938368
:100EE000828304C09093A5018093A401FE013296F1
:100EF00044C0FE01E20FF31F819391932250310908
:100F0000398328833AC02091A2013091A301232B79
:100F100041F420910201309103013093A301209309
:100F2000A20120910001309101012115310541F408
:100F30002DB73EB74091040150910501241B350B9C
:100F4000E091A201F091A301E217F307A0F42E1B98
:100F50003F0B2817390778F0AC014E5F5F4F24171D
:100F6000350748F04E0F5F1F5093A3014093A20135
:100F70008193919302C0E0E0F0E0CF01DF91CF9147
:100F80001F910F910895CF93DF93009709F481C0CB
:100F9000FC01329713821282A091A401B091A501A5
:100FA000109781F420813181820F931F2091A2013B
:100FB0003091A3012817390751F5F093A301E0936D
:100FC000A20167C0ED0120E030E0CE17DF0740F45A
:100FD0004A815B819E0141155105F1F0EA01F5CF8F
:100FE000D383C28340815181840F951FC817D907CD
:100FF00059F488819981840F951F0296918380838B
:101000008A819B81938382832115310529F4F09392
:10101000A501E093A4013DC0E901FB83EA83499166
:101020005991C40FD51FEC17FD0761F480819181A0
:10103000840F951F0296E9019983888382819381A9
:101040009B838A83E0E0F0E012968D919C91139748
:10105000009719F0FD01DC01F7CF8D919C9111975C
:101060009D012E5F3F4F820F931F2091A20130916F
:10107000A3012817390769F4309729F41092A501C4
:101080001092A40102C013821282B093A301A09314
:10109000A201DF91CF910895A0E0B0E0E2E5F8E091
:1010A0000C941F09EC01009721F4CB010E942B073F
:1010B000B4C0FC01E60FF71F9C0122503109E21772
:1010C000F30708F4A8C0D9010D911C9111970617D8
:1010D0001707B0F00530110508F49BC0C80104974C
:1010E0008617970708F495C002501109061B170BC5
:1010F000019311936D937C93CF010E94C30789C024
:101100005B01A01AB10A4C01800E911EA091A401AE
:10111000B091A501612C712CE12CF12C109709F4F0
:1011200046C08D919C911197A815B905B1F56C0138
:1011300042E0C40ED11CCA14DB0478F14C018A18B9
:101140009B08640142E0C40ED11C1296BC90129719
:101150001396AC91B5E0CB16D10440F0B282A383D4
:1011600091828082D9016D937C9309C00E5F1F4FDD
:10117000800F911FF90191838083EB2DFA2FE114E9
:10118000F10431F0D7011396FC93EE93129741C00E
:10119000F093A501E093A4013CC06816790608F419
:1011A0003C017D0112960D90BC91A02DB7CF80918E
:1011B000A2019091A30188169906E1F466167706BC
:1011C000C8F48091000190910101009741F48DB71E
:1011D0009EB74091040150910501841B950BE817BF
:1011E000F907C8F4F093A301E093A201F901718318
:1011F00060830FC0CB010E942B077C01009759F040
:10120000A801BE010E941209CE010E94C307C701B6
:1012100004C0CE0102C080E090E0CDB7DEB7EEE0C2
:101220000C943B09FB01DC0102C001900D9241507E
:101230005040D8F708952F923F924F925F926F924D
:101240007F928F929F92AF92BF92CF92DF92EF9256
:10125000FF920F931F93CF93DF93CDB7DEB7CA1BD7
:10126000DB0B0FB6F894DEBF0FBECDBF09942A8802
:10127000398848885F846E847D848C849B84AA84AA
:10128000B984C884DF80EE80FD800C811B81AA8137
:10129000B981CE0FD11D0FB6F894DEBF0FBECDBF02
:0812A000ED010895F894FFCF61
:0812A8000000A6012000010076
:00000001FF
