S01700005472616E736D6974746572436F64652E73726563F5
S11300000C9434000C9451000C9451000C94510045
S11300100C9451000C9451000C9451000C94510018
S11300200C9451000C9451000C9451000C94510008
S11300300C9451000C9451000C94D4000C948D0039
S11300400C9451000C941B010C944A010C94510023
S11300500C94DE010C9451000C9451000C9451004A
S11300600C9439010C94510011241FBECFEFD8E039
S1130070DEBFCDBF11E0A0E0B1E0E4E1F5E002C0F5
S113008005900D92A230B107D9F721E0A2E0B1E0CA
S113009001C01D92A639B207E1F70E9478000C94C2
S11300A088020C94000087B1806187B918B808955C
S11300B0AC0120E030E018C098B1906198B96FEFBE
S11300C083EC99E0615080409040E1F700C000006B
S11300D018B86FEF81EE94E0615080409040E1F7F2
S11300E000C000002F5F3F4F241735072CF30895FD
S11300F040E060E875E280E090E00E94ED017894D1
S11301000E9453000E941E02892BE1F30E942302E5
S113011082E090E00E945800F5CF1F920F920FB634
S11301200F9211242F933F938F939F932091040157
S1130130309105012F5F3F4F309305012093040157
S11301405D9906C08091080190910901819504C0D0
S1130150809108019091090190E028173907D9F49A
S113016020910801309109018091060190910701C5
S11301702817390741F08091060190910701909367
S11301800901809308019BB180E289278BB9109201
S11301900501109204019F918F913F912F910F902F
S11301A00FBE0F901F9018951F920F920FB60F92CB
S11301B011242F933F938F939F93209102013091A9
S11301C003012F5F3F4F30930301209302015E9997
S11301D006C08091080190910901819504C0809125
S11301E008019091090190E028173907D9F420916A
S11301F008013091090180910601909107012817A7
S1130200390741F08091060190910701909309010B
S1130210809308019BB180E489278BB91092030174
S1130220109202019F918F913F912F910F900FBED9
S11302300F901F9018951F920F920FB60F921124D2
S11302408F930DB407FE09C08EB580930B011092F5
S11302500B0181E080930A0106C08EB580930B01E7
S113026081E080930A018F910F900FBE0F901F9031
S113027018951F920F920FB60F9211248F938091AD
S1130280B900887F809300018F910F900FBE0F906B
S11302901F9018951F920F920FB60F921124AF92D0
S11302A0BF92CF92DF92EF92FF920F931F932F93FF
S11302B03F934F935F936F937F938F939F93AF93EA
S11302C0BF93EF93FF93CF93DF93CDB7DEB70DB713
S11302D01EB7E0910E01F0910F018091C600EA5E15
S11302E0FE4F8083809114019091150101969093A3
S11302F015018093140180910E0190910F010196D4
S113030090930F0180930E01E0901201F09013017D
S1130310E114F10441F18091140190911501E81662
S1130320F90609F58DB79EB78E199F090FB6F89493
S11303309EBF0FBE8DBF01966C01A70166E171E0FF
S11303400E947F02E0911001F0911101B701C601F2
S1130350099510920F0110920E010FB6F8941EBF6A
S11303600FBE0DBF0BC080910E0190910F0180381C
S1130370910520F010920F0110920E010FB6F8941F
S11303801EBF0FBE0DBFDF91CF91FF91EF91BF91C3
S1130390AF919F918F917F916F915F914F913F9119
S11303A02F911F910F91FF90EF90DF90CF90BF900E
S11303B0AF900F900FBE0F901F9018951F920F9241
S11303C00FB60F9211248F9381E0809301018F91D6
S11303D00F900FBE0F901F901895442339F0E0EC56
S11303E0F0E0208122602083A8E001C0A0E1B0E019
S11303F09B01AC010E9465029B01AC0160E074E2C8
S113040084EF90E00E944302BA01A90141505109CE
S113041061097109DB01CA0188279F70AA27BB27DC
S1130420892F9A2FAB2FBB278093C5004093C4001C
S1130430E1ECF0E08081886D80830895809114015F
S113044090911501089520910C0130910D01F9014D
S1130450EA5EFE4F80812F5F3F4F30930D01209362
S11304600C014091140150911501415051095093D0
S11304701501409314012038310520F010920D012C
S113048010920C010895A1E21A2EAA1BBB1BFD01B8
S11304900DC0AA1FBB1FEE1FFF1FA217B307E4075F
S11304A0F50720F0A21BB30BE40BF50B661F771FB7
S11304B0881F991F1A9469F7609570958095909597
S11304C09B01AC01BD01CF0108950E947002A59F5C
S11304D0900DB49F900DA49F800D911D112408953B
S11304E0A29FB001B39FC001A39F700D811D112471
S11304F0911DB29F700D811D1124911D0895FB0162
S1130500DC0102C001900D9241505040D8F708958B
S1070510F894FFCF89
S1050514F801E8
S9030000FC
