:100000000C9434000C9451000C9451000C94510049
:100010000C9451000C9451000C9451000C9451001C
:100020000C9451000C9451000C9451000C9451000C
:100030000C9451000C9451000C9451000C945100FC
:100040000C9451000C946D000C949C000C94510085
:100050000C94D4000C9451000C9451000C94510059
:100060000C948B000C94510011241FBECFEFD8E0EC
:10007000DEBFCDBF11E0A0E0B1E0E6EBF2E002C0F0
:1000800005900D92A230B107D9F721E0A2E0B1E0CE
:1000900001C01D92A838B207E1F70E9453000C94EA
:1000A00059010C94000040E060E875E280E090E0C7
:1000B0000E94E3007894C1E48C2F0E941401CF5F6A
:1000C000CA3509F4C1E42FEF89E698E12150804058
:1000D0009040E1F700C00000EFCF1F920F920FB6E3
:1000E0000F9211248F930DB407FE09C08EB5809333
:1000F00003011092030181E08093020106C08EB5D6
:100100008093030181E0809302018F910F900FBED5
:100110000F901F9018951F920F920FB60F921124F7
:100120008F938091B900887F809300018F910F9009
:100130000FBE0F901F9018951F920F920FB60F923F
:1001400011248F939F93EF93FF93E0910401F0911B
:1001500005018091C600E85FFE4F80838091060113
:100160009091070101969093070180930601809179
:10017000040190910501019690930501809304017B
:1001800080910401909105018038910520F0109232
:10019000050110920401FF91EF919F918F910F90B3
:1001A0000FBE0F901F9018951F920F920FB60F92CF
:1001B00011248F9381E0809301018F910F900FBEE6
:1001C0000F901F901895442339F0E0ECF0E0208167
:1001D00022602083A8E001C0A0E1B0E09B01AC0157
:1001E0000E943F019B01AC0160E074E284EF90E06B
:1001F0000E941D01BA01A90141505109610971090B
:10020000DB01CA0188279F70AA27BB27892F9A2F55
:10021000AB2FBB278093C5004093C400E1ECF0E016
:100220008081886D80830895909101019923E1F385
:10023000109201018093C6000895A1E21A2EAA1B14
:10024000BB1BFD010DC0AA1FBB1FEE1FFF1FA21786
:10025000B307E407F50720F0A21BB30BE40BF50B83
:10026000661F771F881F991F1A9469F7609570950C
:10027000809590959B01AC01BD01CF0108950E942E
:100280004A01A59F900DB49F900DA49F800D911DD4
:1002900011240895A29FB001B39FC001A39F700DC8
:1002A000811D1124911DB29F700D811D1124911D7E
:0602B0000895F894FFCF51
:0202B600F8014D
:00000001FF
