:100000000C9434000C9451000C9451000C94510049
:100010000C9451000C9451000C9451000C9451001C
:100020000C9451000C9451000C9451000C9451000C
:100030000C9451000C9451000C9437040C94F00370
:100040000C9451000C947E040C94BD040C9451004B
:100050000C9451050C9451000C9451000C945100D7
:100060000C94AC040C94510011241FBECFEFD8E0C7
:10007000DEBFCDBF11E0A0E0B1E0EEE4FEE002C0E3
:1000800005900D92A830B107D9F721E0A8E0B1E0C2
:1000900001C01D92A03AB207E1F70E94B8000C948B
:1000A00025070C9400000F931F93CF93DF93CDB7D8
:1000B000DEB7A0970FB6F894DEBF0FBECDBF8C01A0
:1000C000462FBC0180919A0190919B010E942603CA
:1000D000F8018181882309F440C001EE10EF20EF80
:1000E00038EE48EE50E060E070E080919A01909127
:1000F0009B010E949A0280919A0190919B010E941B
:10010000D00280919A0190919B010E94E60388237E
:10011000C1F340E2BE016F5F7F4F80919A019091E1
:100120009B010E94950360E270E0CE0101960E945F
:10013000A30580919A0190919B010E94FF0201EE1C
:1001400010EF20EF38EE48EE50E060E070E0809174
:100150009A0190919B010E946502A0960FB6F894B7
:10016000DEBF0FBECDBFDF91CF911F910F910895DC
:100170000F931F9383E190E00E94FB0590939B01F6
:1001800080939A010E94B70140E060E875E280E048
:1001900090E00E94600560E270E083E590E00E94DC
:1001A00091050E949C04789480919A0190919B0102
:1001B0000E94E101882379F001EE10EF20EF38EE84
:1001C00048EE50E060E070E080919A0190919B01D0
:1001D0000E946502FFCF85E00E949A0580E090E0D2
:1001E0001F910F91089561110EC045B121E030E0DB
:1001F000B90102C0660F771F8A95E2F7CB0180959F
:10020000842385B9089545B121E030E0B90102C0E9
:10021000660F771F8A95E2F7CB01842B85B9089585
:10022000CF93DF93EC0160E089810E94F30080E5C9
:100230000E94A20483E70E94A20461E089810E94D7
:10024000F300DF91CF9108951F93CF93DF93EC01DB
:10025000162F60E089810E94F300812F80620E9446
:10026000A204182F61E089810E94F300812FDF91A1
:10027000CF911F91089561EE0E942401089562EECE
:100280000E94240108956FEF0E94240108950F93A6
:100290001F93CF93DF93EC01162F042F60E0898129
:1002A0000E94F300812F80620E94A204182F802FE9
:1002B0000E94A20461E089810E94F300812FDF91F6
:1002C000CF911F910F9108951F93CF93DF93EC016E
:1002D000162F60E089810E94F300812F0E94A20402
:1002E0008FEF0E94A204182F61E089810E94F30021
:1002F000812FDF91CF911F910895EF92FF920F937D
:100300001F93CF93DF937C01C62F8A01D22F60E029
:10031000FC0181810E94F3008C2F80620E94A20464
:10032000C0E007C0F801EC0FF11D80810E94A2041B
:10033000CF5FCD17B8F361E0F70181810E94F30030
:10034000DF91CF911F910F91FF90EF900895FC01E5
:10035000428941FD0BC04260428B60E00E94470130
:100360008FE19EE40197F1F700C000000895FC01C1
:1003700091E0908382E0818384B1866084B940E813
:1003800056E968E970E0428353836483758380E2B1
:1003900086831782108685E08187928783871486FB
:1003A00084B18E7F84B985B1816085B9EBE6F0E0D8
:1003B000808181608083E8E6F0E0808181608083D5
:1003C00008951F93CF93DF93EC0160E088810E9432
:1003D000F30061E089810E94F3008FE19EE40197C0
:1003E000F1F700C000004FE564E0CE010E94470134
:1003F00066E0CE010E946401482F477D66E0CE0191
:100400000E9447016DE1CE010E946401182FCE01C8
:100410000E9410016DE1CE010E94640191E0181369
:1004200090E09F83882351F0992319F0CE010E9418
:10043000100140E06DE1CE010E944701198A40E0C1
:100440006CE1CE010E9447011A864FE361E0CE01C4
:100450000E94470143E062E0CE010E94470110E0A4
:1004600007C061E1610F4E81CE010E9447011F5F0D
:100470001630B8F343E063E0CE010E94470145E641
:1004800065E0CE010E94470140E767E0CE010E948F
:100490004701CE010E943B01CE010E943F014CE08A
:1004A00060E0CE010E94470160E0CE010E9464013D
:1004B0008A8BCE010E94A7019A8981E09E3009F0C3
:1004C00080E0DF91CF911F910895EF92FF920F93FB
:1004D0001F93CF93DF93CDB7DEB728970FB6F8946D
:1004E000DEBF0FBECDBF7C0109831A832B833C8303
:1004F0004D835E836F837887FC012185AE014F5F5A
:100500005F4F6AE00E947D01F7012185AE014F5FD8
:100510005F4F60E1C7010E947D0128960FB6F894F5
:10052000DEBF0FBECDBFDF91CF911F910F91FF9026
:10053000EF900895EF92FF920F931F93CF93DF9365
:10054000CDB7DEB728970FB6F894DEBF0FBECDBF8C
:100550007C0109831A832B833C834D835E836F83E5
:100560007887FC012185AE014F5F5F4F6BE00E94F1
:100570007D0162E0C7010E946401482F426062E091
:10058000C7010E94470128960FB6F894DEBF0FBE40
:10059000CDBFDF91CF911F910F91FF90EF90089504
:1005A000CF93DF93EC010E94A7014A8941604A8BF7
:1005B00060E0CE010E94470140E767E0CE010E9463
:1005C000470161E088810E94F3008885882349F013
:1005D000AE01445F5F4F29856AE0CE010E947D0134
:1005E0000BC062E0CE010E946401482F4E7F62E0A2
:1005F000CE010E9447011886DF91CF910895CF93D5
:10060000DF93EC0160E088810E94F30083E591E0D4
:100610000197F1F700C000008989882319F0CE0105
:100620000E943B014A894E7F4A8B60E0CE010E94C6
:10063000470162E0CE010E946401482F416062E000
:10064000CE010E944701DF91CF910895AF92BF92F2
:10065000DF92EF92FF920F931F93CF93DF937C0172
:100660008B01D1E04111D0E0F7018285811107C0F3
:10067000D681C42FD41708F4CD2FDC1B04C0C42F9F
:10068000413208F0C0E260E0F70181810E94F3008E
:1006900080EA0E94A2040AC05801FFEFAF1ABF0A05
:1006A000F80180810E94A204CD2D8501DD24DA9419
:1006B000DC0EC111F1CF04C080E00E94A204DC2F47
:1006C000CFEFCD0FD111F8CF61E0F70181810E940A
:1006D000F30061E0F70180810E94F30088B182603D
:1006E00088B9C7010E9443018073D9F388B18D7F17
:1006F00088B960E0F70180810E94F30040E767E07D
:10070000C7010E94470184FF05C0C7010E943B0149
:1007100080E001C081E0DF91CF911F910F91FF90A8
:10072000EF90DF90BF90AF900895AF92BF92CF92BD
:10073000DF92FF920F931F93CF93DF936C018B0196
:10074000FC018285811107C0C681DC2F4C1708F49B
:10075000D42FCD1B05C0D42F413208F0D0E2C0E029
:1007600060E0F60181810E94F30081E60E94A2040C
:100770000BC05801FFEFAF1ABF0A8FEF0E94A2040F
:10078000F8018083DF2D8501FF24FA94FD0ED1113D
:10079000F0CF04C08FEF0E94A204CD2FDFEFDC0F5B
:1007A000C111F8CF61E0F60181810E94F30040E4BD
:1007B00067E0C6010E944701DF91CF911F910F9121
:1007C000FF90DF90CF90BF90AF9008950E944301BB
:1007D0008695982F977081E0963008F080E0089514
:1007E0001F920F920FB60F9211242F933F938F9366
:1007F0009F9320910A0130910B012F5F3F4F30935F
:100800000B0120930A015D9906C080910E01909121
:100810000F01819504C080910E0190910F0190E02D
:1008200028173907D9F420910E0130910F018091DA
:100830000C0190910D012817390741F080910C01AE
:1008400090910D0190930F0180930E019BB180E276
:1008500089278BB910920B0110920A019F918F91F9
:100860003F912F910F900FBE0F901F9018951F92E0
:100870000F920FB60F9211242F933F938F939F9354
:1008800020910801309109012F5F3F4F30930901FA
:10089000209308015E9906C080910E0190910F018E
:1008A000819504C080910E0190910F0190E028176E
:1008B0003907D9F420910E0130910F0180910C017C
:1008C00090910D012817390741F080910C0190910A
:1008D0000D0190930F0180930E019BB180E4892755
:1008E0008BB910920901109208019F918F913F914D
:1008F0002F910F900FBE0F901F9018951F920F927F
:100900000FB60F9211248F930DB407FE09C08EB558
:10091000809311011092110181E08093100106C0B3
:100920008EB58093110181E0809310018F910F901B
:100930000FBE0F901F90189584B1886284B981ED25
:100940008CBD0895109210018EBD809110018823F6
:10095000E1F38091110108951F920F920FB60F924B
:1009600011248F938091B900887F809306018F9125
:100970000F900FBE0F901F9018951F920F920FB6F9
:100980000F921124AF92BF92CF92DF92EF92FF921B
:100990000F931F932F933F934F935F936F937F9387
:1009A0008F939F93AF93BF93EF93FF93CF93DF9377
:1009B000CDB7DEB70DB71EB7E0911201F09113016C
:1009C0008091C600E65EFE4F808380911801909171
:1009D00019010196909319018093180180911201D9
:1009E0009091130101969093130180931201E0906E
:1009F0001601F0901701E114F10441F18091180102
:100A000090911901E816F90609F58DB79EB78E1970
:100A10009F090FB6F8949EBF0FBE8DBF01966C0163
:100A2000A7016AE171E00E941C07E0911401F091B6
:100A30001501B701C6010995109213011092120118
:100A40000FB6F8941EBF0FBE0DBF0BC080911201F0
:100A5000909113018038910520F0109213011092AB
:100A600012010FB6F8941EBF0FBE0DBFDF91CF91DC
:100A7000FF91EF91BF91AF919F918F917F916F9176
:100A80005F914F913F912F911F910F91FF90EF90A8
:100A9000DF90CF90BF90AF900F900FBE0F901F9040
:100AA00018951F920F920FB60F9211248F9381E029
:100AB000809307018F910F900FBE0F901F90189594
:100AC000442339F0E0ECF0E0208122602083A8E0AC
:100AD00001C0A0E1B0E09B01AC010E94E1059B01D7
:100AE000AC0160E074E284EF90E00E94BF05BA01BF
:100AF000A9014150510961097109DB01CA01882727
:100B00009F70AA27BB27892F9A2FAB2FBB278093D3
:100B1000C5004093C400E1ECF0E08081886D8083E3
:100B200008959093150180931401709317016093B9
:100B300016010895909107019923E1F3109207019E
:100B40008093C6000895EF92FF920F931F93CF9367
:100B5000DF937C018B01C0E0D0E007C0F701EC0F10
:100B6000FD1F80810E949A052196C017D107B0F31E
:100B7000DF91CF911F910F91FF90EF900895A1E227
:100B80001A2EAA1BBB1BFD010DC0AA1FBB1FEE1F07
:100B9000FF1FA217B307E407F50720F0A21BB30B52
:100BA000E40BF50B661F771F881F991F1A9469F7CE
:100BB00060957095809590959B01AC01BD01CF012A
:100BC00008950E94EC05A59F900DB49F900DA49FE1
:100BD000800D911D11240895A29FB001B39FC00103
:100BE000A39F700D811D1124911DB29F700D811D59
:100BF0001124911D08950F931F93CF93DF9382309B
:100C0000910510F482E090E0E0919E01F0919F0147
:100C100020E030E0A0E0B0E0309719F14081518150
:100C20000281138148175907C8F08417950769F4A2
:100C3000109731F012960C93129713961C9327C0BD
:100C400000939E0110939F0122C02115310519F0D8
:100C50004217530718F49A01BD01EF01DF01F801B3
:100C6000DBCF21153105F9F0281B390B2430310574
:100C700080F48A819B816115710521F0FB019383CA
:100C8000828304C090939F0180939E01FE0132965F
:100C900044C0FE01E20FF31F81939193225031096A
:100CA000398328833AC020919C0130919D01232BE8
:100CB00041F4209102013091030130939D01209372
:100CC0009C0120910001309101012115310541F471
:100CD0002DB73EB74091040150910501241B350BFF
:100CE000E0919C01F0919D01E217F307A0F42E1B07
:100CF0003F0B2817390778F0AC014E5F5F4F241780
:100D0000350748F04E0F5F1F50939D0140939C01A3
:100D10008193919302C0E0E0F0E0CF01DF91CF91A9
:100D20001F910F910895CF93DF93009709F481C02D
:100D3000FC01329713821282A0919E01B0919F0113
:100D4000109781F420813181820F931F20919C01A3
:100D500030919D012817390751F5F0939D01E093DB
:100D60009C0167C0ED0120E030E0CE17DF0740F4C2
:100D70004A815B819E0141155105F1F0EA01F5CFF1
:100D8000D383C28340815181840F951FC817D9072F
:100D900059F488819981840F951F029691838083ED
:100DA0008A819B81938382832115310529F4F093F5
:100DB0009F01E0939E013DC0E901FB83EA834991D5
:100DC0005991C40FD51FEC17FD0761F48081918103
:100DD000840F951F0296E90199838883828193810C
:100DE0009B838A83E0E0F0E012968D919C911397AB
:100DF000009719F0FD01DC01F7CF8D919C911197BF
:100E00009D012E5F3F4F820F931F20919C013091D7
:100E10009D012817390769F4309729F410929F0132
:100E200010929E0102C013821282B0939D01A09382
:100E30009C01DF91CF910895FB01DC0102C001907C
:0E0E40000D9241505040D8F70895F894FFCF1E
:080E4E000000A0012000F801E2
:00000001FF
