S01700005472616E736D6974746572436F64652E73726563F5
S11300000C9434000C9451000C9451000C94510045
S11300100C9451000C9451000C9451000C94510018
S11300200C9451000C9451000C9451000C94510008
S11300300C9451000C9451000C94F9000C94B200EF
S11300400C9451000C9451000C9440010C945100F8
S11300500C94D8010C9451000C9451000C94510050
S11300600C9451000C94510011241FBECFEFD8E022
S1130070DEBFCDBF11E0A0E0B1E0E2ECF9E002C0E8
S113008005900D92A830B107D9F721E0A8E0B1E0BE
S113009001C01D92A03AB207E1F70E948A000C94B5
S11300A0DF040C94000087B1806187B988B18F7E2A
S11300B088B90895AC0120E030E01AC098B190618D
S11300C098B96FEF83EC99E0615080409040E1F77C
S11300D000C0000098B19F7E98B96FEF81EE94E064
S11300E0615080409040E1F700C000002F5F3F4F17
S11300F0241735071CF30895AB01BC0180919A01C4
S113010090919B010E945202089582E090E00E9427
S11301105A000895CF93DF9300D01F92CDB7DEB776
S1130120CE01019690939B0180939A010E94210233
S113013045E850E061E080919A0190919B010E9412
S1130140260240E060E875E280E090E00E94E7016A
S113015060E270E08CE790E00E94180278940E94BC
S11301605300FFCF1F920F920FB60F9211242F93BB
S11301703F938F939F9320910A0130910B012F5F3E
S11301803F4F30930B0120930A015D9906C0809183
S11301900E0190910F01819504C080910E01909100
S11301A00F0190E028173907D9F420910E013091FE
S11301B00F0180910C0190910D012817390741F02E
S11301C080910C0190910D0190930F0180930E0189
S11301D09BB180E289278BB910920B0110920A011E
S11301E09F918F913F912F910F900FBE0F901F9071
S11301F018951F920F920FB60F9211242F933F93CD
S11302008F939F9320910801309109012F5F3F4FF5
S113021030930901209308015E9906C080910E0174
S113022090910F01819504C080910E0190910F016E
S113023090E028173907D9F420910E0130910F016D
S113024080910C0190910D012817390741F080919C
S11302500C0190910D0190930F0180930E019BB1BD
S113026080E489278BB910920901109208019F91AB
S11302708F913F912F910F900FBE0F901F90189563
S11302801F920F920FB60F921124AF92BF92CF928A
S1130290DF92EF92FF920F931F932F933F934F930D
S11302A05F936F937F938F939F93AF93BF93EF93DA
S11302B0FF93CF93DF93CDB7DEB70DB71EB7E091B1
S11302C01001F09111018091C600E85EFE4F808319
S11302D080911601909117010196909317018093D4
S11302E016018091100190911101019690931101D2
S11302F080931001E0901401F0901501E114F104D1
S113030061F18091160190911701E816F90629F51B
S11303108DB79EB78E199F090FB6F8949EBF0FBE76
S11303208DBF01966C01A70168E171E00E949F04F2
S1130330E0911201F0911301B701C60109951092E1
S113034011011092100110921701109216010FB6AC
S1130350F8941EBF0FBE0DBF0BC080911001909189
S113036011018038910520F01092110110921001B2
S11303700FB6F8941EBF0FBE0DBFDF91CF91FF9152
S1130380EF91BF91AF919F918F917F916F915F9109
S11303904F913F912F911F910F91FF90EF90DF901C
S11303A0CF90BF90AF900F900FBE0F901F901895F5
S11303B01F920F920FB60F9211248F9381E08093B6
S11303C006018F910F900FBE0F901F901895442334
S11303D039F0E0ECF0E0208122602083A8E001C045
S11303E0A0E1B0E09B01AC010E949E029B01AC0124
S11303F060E074E284EF90E00E947C02BA01A901FB
S11304004150510961097109DB01CA0188279F70B4
S1130410AA27BB27892F9A2FAB2FBB278093C50010
S11304204093C400E1ECF0E08081886D80830895FE
S1130430909313018093120170931501609314013A
S11304400895FC011182108212820895EF92FF92A6
S11304501F93CF93DF93EC01162F7A016A816F5FAC
S11304606A8370E0CB01880F991F680F791F888118
S113047099810E94D903998388832A8130E0F90104
S1130480EE0FFF1F2E0F3F1F23503109FC01E20F17
S1130490F31F1083F282E182DF91CF911F91FF90CD
S11304A0EF900895CF93DF93DC01EB0120E030E07F
S11304B019C08D919C911197F901EE0FFF1FE20F66
S11304C0F31FE80FF91F90818881981309C00180F8
S11304D0F281E02DAE014E5F5F4F6981099509C03D
S11304E02F5F3F4F12964C91129750E02417350717
S11304F004F3DF91CF910895A1E21A2EAA1BBB1B2E
S1130500FD010DC0AA1FBB1FEE1FFF1FA217B307DB
S1130510E407F50720F0A21BB30BE40BF50B661FF1
S1130520771F881F991F1A9469F7609570958095B5
S113053090959B01AC01BD01CF0108950E94A902D1
S1130540A59F900DB49F900DA49F800D911D112423
S11305500895A29FB001B39FC001A39F700D811D98
S11305601124911DB29F700D811D1124911D0895B8
S11305700F931F93CF93DF938230910510F482E0A1
S113058090E0E0919E01F0919F0120E030E0A0E036
S1130590B0E0309719F140815181028113814817ED
S11305A05907C8F08417950769F4109731F012962B
S11305B00C93129713961C9327C000939E011093DB
S11305C09F0122C02115310519F04217530718F471
S11305D09A01BD01EF01DF01F801DBCF21153105DF
S11305E0F9F0281B390B2430310580F48A819B8172
S11305F06115710521F0FB019383828304C09093FC
S11306009F0180939E01FE01329644C0FE01E20FD9
S1130610F31F8193919322503109398328833AC07F
S113062020919C0130919D01232B41F420910201E2
S11306303091030130939D0120939C01209100018E
S1130640309101012115310541F42DB73EB7409198
S1130650040150910501241B350BE0919C01F0919C
S11306609D01E217F307A0F42E1B3F0B281739074F
S113067078F0AC014E5F5F4F2417350748F04E0FFA
S11306805F1F50939D0140939C018193919302C0FD
S1130690E0E0F0E0CF01DF91CF911F910F91089539
S11306A0CF93DF93009709F481C0FC013297138242
S11306B01282A0919E01B0919F01109781F4208134
S11306C03181820F931F20919C0130919D01281745
S11306D0390751F5F0939D01E0939C0167C0ED014A
S11306E020E030E0CE17DF0740F44A815B819E01B1
S11306F041155105F1F0EA01F5CFD383C28340815E
S11307005181840F951FC817D90759F4888199819D
S1130710840F951F0296918380838A819B819383A2
S113072082832115310529F4F0939F01E0939E0102
S11307303DC0E901FB83EA8349915991C40FD51F58
S1130740EC17FD0761F480819181840F951F029657
S1130750E90199838883828193819B838A83E0E082
S1130760F0E012968D919C911397009719F0FD017A
S1130770DC01F7CF8D919C9111979D012E5F3F4F26
S1130780820F931F20919C0130919D0128173907F6
S113079069F4309729F410929F0110929E0102C0CF
S11307A013821282B0939D01A0939C01DF91CF919B
S11307B00895A0E0B0E0EFEDF3E00C94AC04EC019C
S11307C0009721F4CB010E94B802B4C0FC01E60FEB
S11307D0F71F9C0122503109E217F30708F4A8C05F
S11307E0D9010D911C91119706171707B0F0053028
S11307F0110508F49BC0C80104978617970708F4ED
S113080095C002501109061B170B019311936D93A8
S11308107C93CF010E94500389C05B01A01AB10AE6
S11308204C01800E911EA0919E01B0919F01612CFC
S1130830712CE12CF12C109709F446C08D919C91F8
S11308401197A815B905B1F56C0142E0C40ED11C8D
S1130850CA14DB0478F14C018A189B08640142E055
S1130860C40ED11C1296BC9012971396AC91B5E0AD
S1130870CB16D10440F0B282A38391828082D90145
S11308806D937C9309C00E5F1F4F800F911FF90178
S113089091838083EB2DFA2FE114F10431F0D70119
S11308A01396FC93EE93129741C0F0939F01E0934B
S11308B09E013CC06816790608F43C017D0112963D
S11308C00D90BC91A02DB7CF80919C0190919D017A
S11308D088169906E1F466167706C8F4809100013B
S11308E090910101009741F48DB79EB740910401A6
S11308F050910501841B950BE817F907C8F4F09390
S11309009D01E0939C01F901718360830FC0CB01C9
S11309100E94B8027C01009759F0A801BE010E9410
S11309209F04CE010E945003C70104C0CE0102C03F
S113093080E090E0CDB7DEB7EEE00C94C804FB0194
S1130940DC0102C001900D9241505040D8F7089547
S11309502F923F924F925F926F927F928F929F92CB
S1130960AF92BF92CF92DF92EF92FF920F931F93B9
S1130970CF93DF93CDB7DEB7CA1BDB0B0FB6F8946A
S1130980DEBF0FBECDBF09942A88398848885F84AA
S11309906E847D848C849B84AA84B984C884DF801B
S11309A0EE80FD800C811B81AA81B981CE0FD11DFF
S11309B00FB6F894DEBF0FBECDBFED010895F894D5
S10509C0FFCF63
S10B09C20000A0012000010067
S9030000FC
