:100000000C9434000C9451000C9451000C94510049
:100010000C9451000C9451000C9451000C9451001C
:100020000C9451000C9451000C9451000C9451000C
:100030000C9451000C9451000C949E000C945700A9
:100040000C9451000C9400010C942F010C9451005D
:100050000C9467010C9451000C9451000C945100C5
:100060000C941E010C94510011241FBECFEFD8E058
:10007000DEBFCDBF11E0A0E0B1E0E0EFF2E002C0F2
:1000800005900D92A230B107D9F721E0A2E0B1E0CE
:1000900001C01D92A039B207E1F70E9453000C94F1
:1000A00076010C9400000E94E5007894FFCF1F9227
:1000B0000F920FB60F9211242F933F938F939F931C
:1000C00020910401309105012F5F3F4F30930501CE
:1000D000209304015D9906C0809108019091090167
:1000E000819504C0809108019091090190E0281742
:1000F0003907D9F420910801309109018091060156
:10010000909107012817390741F0809106019091DD
:10011000070190930901809308019BB180E2892730
:100120008BB910920501109204019F918F913F911C
:100130002F910F900FBE0F901F9018951F920F9246
:100140000FB60F9211242F933F938F939F9320917B
:100150000201309103012F5F3F4F30930301209341
:1001600002015E9906C08091080190910901819574
:1001700004C0809108019091090190E02817390787
:10018000D9F42091080130910901809106019091E4
:1001900007012817390741F0809106019091070166
:1001A00090930901809308019BB180E489278BB962
:1001B00010920301109202019F918F913F912F9114
:1001C0000F900FBE0F901F90189582E084BD93E0B2
:1001D00095BD80936E0085E087BD88BD8AB180663D
:1001E0008AB98FEF90E09093090180930801809184
:1001F00008019091090190930701809306010895E9
:100200001F920F920FB60F9211248F930DB407FE19
:1002100009C08EB580930B0110920B0181E0809391
:100220000A0106C08EB580930B0181E080930A011C
:100230008F910F900FBE0F901F9018951F920F92E5
:100240000FB60F9211248F938091B900887F80930D
:1002500000018F910F900FBE0F901F9018951F9265
:100260000F920FB60F9211248F939F93EF93FF93EA
:10027000E0910C01F0910D018091C600E05FFE4F0E
:10028000808380910E0190910F01019690930F0150
:1002900080930E0180910C0190910D010196909335
:1002A0000D0180930C0180910C0190910D0180381B
:1002B000910520F010920D0110920C01FF91EF9129
:1002C0009F918F910F900FBE0F901F9018951F92C6
:1002D0000F920FB60F9211248F9381E0809301014A
:1002E0008F910F900FBE0F901F901895F894FFCF2D
:0202F000F80113
:00000001FF
